:100000000C9481000C949E000C949E000C94380576
:100010000C945F050C949E000C949E000C94880533
:100020000C949E000C949E000C949E000C94AE05C3
:100030000C949E000C949E000C949E000C949E00C8
:100040000C949E000C949E000C949E000C949E00B8
:100050000C949E000C949E000C949E000C949E00A8
:100060000C949E000C949E00960298029A029C02A8
:100070009E02A002A202A402A602A802AA02AC0248
:10008000AE02B002B202B402BE02C002C202C40298
:10009000C602C802CA02CC02CE02D002D202D402E8
:1000A000D602D802DA02DC0208000000BE9224491F
:1000B000123EABAAAA2ABECDCCCC4C3E000000809A
:1000C000BEABAAAAAA3E00000000BF000000803F0D
:1000D0000000000000084178D3BB4387D1133D19CD
:1000E0000E3CC3BD4282AD2B3E68EC8276BED98FFA
:1000F000E1A93E4C80EFFFBE01C4FF7F3F0000003E
:10010000000011241FBECFEFD8E0DEBFCDBF11E04D
:10011000A0E0B1E0EEEEF2E102C005900D92A6344F
:10012000B107D9F721E0A6E4B1E001C01D92A436E1
:10013000B207E1F70E94EC040C9475090C940000DE
:100140004F925F926F927F928F929F92AF92BF92E7
:10015000CF92DF92EF92FF920F931F93CF93DF9393
:1001600000D000D01F92CDB7DEB7982FFA01290139
:100170008FB7923008F0ABC02081102F109521234B
:100180002083DB012C9121232C932081202B2083A1
:10019000913029F4AFECB7E01197F1F707C0BFEF4A
:1001A00020EE30E0B15020403040E1F700C00000C8
:1001B000F894208121232083A7E1B1E01197F1F782
:1001C00000C00000D2012C91202311F08FBF83C00A
:1001D000AFE3B1E01197F1F700C00000D2012C911C
:1001E00020238FBF222309F476C0B5EDBA95F1F72D
:1001F00000009E012F5F3F4F5E0146E0A40EB11C40
:100200009FB6F894808181238083DB018C918123C8
:100210008C9348E050E0A0E87A2E812C8EE3D20146
:100220006C90602239F4815081F0B5E0BA95F1F715
:100230000000F5CFB0EABA95F1F7D2018C91802396
:1002400009F087288EE3682E09C09FBE44C06A94D7
:100250006620D9F3B5E0BA95F1F70000D2018C9190
:100260008023A9F7769441505109C1F6D9018D92A6
:100270009D019FBEAA16BB0609F0C2CF49812A8103
:10028000240F3B81230F5C81250F5D81251321C045
:10029000913071F429813A81322723273227F601E0
:1002A000318320832B813C813227232732270BC0C7
:1002B000BAE04B9FA0011124F60151834083FAE07C
:1002C0003F9F90011124D7012D933C9305C083E0FB
:1002D00003C082E001C081E00F900F900F900F905B
:1002E0000F90DF91CF911F910F91FF90EF90DF90D2
:1002F000CF90BF90AF909F908F907F906F905F90C6
:100300004F9008950F93CF93DF93FA01D9014FB720
:10031000823068F53081902F909539233083EB013E
:100320003881392338833081302B3083813029F470
:10033000CFECD7E02197F1F707C0DFEF20EE30E0F8
:10034000D15020403040E1F700C00000F894808197
:100350009823908387E191E00197F1F700C00000B6
:100360008C9180234FBF882319F081E001C083E086
:10037000DF91CF910F9108958CE08093B800E9EB65
:10038000F0E080818C7F80838FEF8093BB0084E0DE
:100390008093BC00089584E98093BC000895809107
:1003A000BC0087FFFCCF089584EA8093BC000C94C6
:1003B000CF018093BB0084E88093BC000C94CF01F4
:1003C000882311F084EC01C084E88093BC000C9475
:1003D000CF018091BB0008959BB19F709BB99BB1E9
:1003E000282F207F922B9BB95898599AEFE1FEE471
:1003F0003197F1F700C000005998EFE1FEE4319722
:10040000F1F700C000009BB19F709BB92BB1F0E1E8
:100410008F9FC0011124822B8BB95898599A8FE174
:100420009EE40197F1F700C000005998EFE1FEE467
:100430003197F1F700C0000008958FEF8AB988E284
:100440000E94EC018CE00E94EC0186E00E94EC012D
:1004500081E00E94EC0180E80C94EC019BB19F705C
:100460009BB99BB1282F207F922B9BB9589A599A00
:10047000EFE9FFE03197F1F700C000005998E7EC91
:10048000F0E03197F1F700C000009BB19F709BB97D
:100490002BB1F0E18F9FC0011124822B8BB9589AA8
:1004A000599A8FE99FE00197F1F700C00000599831
:1004B000E7ECF0E03197F1F700C000000895CF932A
:1004C000DF93EC018991882319F00E942E02FACF64
:1004D000DF91CF910895CF93DF93CDB7DEB7289703
:1004E0000FB6F894DEBF0FBECDBF4AE0BE016F5F0E
:1004F0007F4F0E944009CE0101960E945F0228961C
:100500000FB6F894DEBF0FBECDBFDF91CF91089537
:10051000009719F0019751F108956031710508F0C5
:100520004EC0FB01EC5CFF4F0C94260980E845C0EF
:1005300081E843C082E841C083E83FC084E83DC011
:1005400085E83BC086E839C087E837C088E835C011
:1005500089E833C08AE831C08BE82FC08CE82DC011
:100560008DE82BC08EE829C08FE827C06031710567
:1005700030F5FB01EC5BFF4F0C94260980EC1DC0AD
:1005800081EC1BC082EC19C083EC17C084EC15C051
:1005900085EC13C086EC11C087EC0FC088EC0DC051
:1005A00089EC0BC08AEC09C08BEC07C08CEC05C051
:1005B0008DEC03C08EEC01C08FEC0C94EC0108951F
:1005C00081E00C94EC014F925F926F927F928F9238
:1005D0009F92AF92BF92CF92DF92EF92FF926B0108
:1005E0007C01CA01B90120E030E048EC52E40E94ED
:1005F000E5060E941C084B015C012BE83CE645E93E
:1006000051E4C701B6010E9464082B013C012CEEA5
:1006100031E940E853E4C701B6010E9479069B0125
:10062000AC01C301B2010E94E506A50194010E943C
:1006300079066B017C012CEE31E940E853E40E941D
:1006400064084B015C01A70196016BE87CE685E933
:1006500091E40E9478069B01AC01C501B4010E949F
:10066000E506FF90EF90DF90CF90BF90AF909F9006
:100670008F907F906F905F904F900895CF92DF9210
:10068000EF92FF920F931F93CF93DF9300D000D090
:10069000CDB7DEB70E94350680934E0108E026E212
:1006A00030E047E250E068E270E081E00E948201C1
:1006B0002FEF33ED80E3215030408040E1F700C060
:1006C00000009E012F5F3F4F6901CE0103967C0120
:1006D00026E230E047E250E068E270E081E00E940C
:1006E000A0000B811C81C8016AE070E00E94120921
:1006F00060934D0180934C0120914D0180914C01FC
:100700006AE00E940609622F70E0680F711D072ED3
:10071000000C880B990B0E9488076B017C012091CB
:1007200056018091540190E03AE0239F800D911D85
:100730001124801791074CF480914D01809356014C
:1007400080914C018093540115C0209161018091EA
:10075000550190E03AE0239F800D911D1124081768
:10076000190744F480914D018093610180914C01FF
:100770008093550189819A816AE070E00E94120994
:1007800060934B0180934A0120914B0180914A0173
:100790006AE00E940609622F70E0680F711D072E43
:1007A000000C880B990B0E9488079B01AC01C701C4
:1007B000B6010E94E3026B017C010E94570760931F
:1007C00049011091490120E030E040E251E4C701C5
:1007D000B6010E9464086B017C018AE0189FB00199
:1007E0001124072E000C880B990B0E9488079B018F
:1007F000AC01C701B6010E9478060E9457076093BA
:1008000048010F900F900F900F90DF91CF911F91A3
:100810000F91FF90EF90DF90CF900895809152015B
:10082000909153018230910509F441C02CF4009756
:1008300059F00197F1F008958330910509F45AC0F9
:10084000049709F475C008950E94E00260E070E02A
:1008500080E090E00E94880280E091E00E945F02C8
:1008600060E070E081E090E00E94880280914E019B
:100870008EC00E94E00260E070E080E090E00E94A4
:1008800088028FE091E00E945F0260E070E081E00A
:1008900090E00E94880280914D0190E00E946B02DE
:1008A0008CE191E00E945F0280914C0170C00E9437
:1008B000E00260E070E080E090E00E9488028EE15B
:1008C00091E00E945F0260E070E081E090E00E94B1
:1008D000880280914B0190E00E946B028CE191E0D4
:1008E0000E945F0280914A0190E00E946B0288E2C0
:1008F00091E052C00E94E00260E070E080E090E091
:100900000E9488028AE291E00E945F0260E070E04B
:1009100081E090E00E9488028091490190E00E946D
:100920006B028CE191E00E945F02809148012FC030
:100930000E94E00260E070E080E090E00E948802A7
:1009400087E391E00E945F0260E070E081E090E068
:100950000E9488028091560190E00E946B028CE117
:1009600091E00E945F028091540190E00E946B022E
:1009700083E491E00E945F028091610190E00E9417
:100980006B028CE191E00E945F028091550190E042
:100990000E946B028DE091E00C945F02309B0AC0D4
:1009A000809147018F5F80934701843028F081E078
:1009B00080936201109247010895199B0AC08091AB
:1009C00046018F5F80934601843028F081E0809358
:1009D000630110924601089587B18F7C87B988B171
:1009E0008F7C88B921983898409A299A80916B0019
:1009F000826080936B0080916C00816080936C00BA
:100A000080916800816080936800809168008260B6
:100A1000809368002FEF83EC99E021508040904054
:100A2000E1F700C000000E94BC010E940F060E9476
:100A30001D020E943E0380914D01809361018091CF
:100A40004C018093550180914D0180935601809116
:100A50004C01809354012FEF83EC99E021508040AA
:100A60009040E1F700C0000078940E943E03FDCF63
:100A70001F920F920FB60F9211248F939F93809124
:100A800063018823A9F0809152019091530101964E
:100A900090935301809352018091520190915301A0
:100AA000059724F0109253011092520110926301A5
:100AB0009F918F910F900FBE0F901F9018951F92CE
:100AC0000F920FB60F9211248F939F938091620122
:100AD0008823B9F08091520190915301019790932E
:100AE000530180935201809152019091530197FFDD
:100AF00006C084E090E090935301809352011092DD
:100B000062019F918F910F900FBE0F901F901895CB
:100B10001F920F920FB60F9211242F933F934F9372
:100B20005F936F937F938F939F93AF93BF93EF9355
:100B3000FF930E94CE040E94DD04FF91EF91BF91CC
:100B4000AF919F918F917F916F915F914F913F9165
:100B50002F910F900FBE0F901F9018951F920F921C
:100B60000FB60F9211242F933F934F935F936F9380
:100B70007F938F939F93AF93BF93EF93FF93809156
:100B800051018F5F809351010E940E0480915101A9
:100B90008C33A0F180914D018093610180914C01D3
:100BA0008093550180914D018093560180914C01B5
:100BB00080935401809150018F5F809350018C335A
:100BC000D8F080914F018F5F80934F01883190F072
:100BD00080914D018093610180914C01809355017A
:100BE00080914D018093560180914C018093540176
:100BF00010924F011092500110925101FF91EF910C
:100C0000BF91AF919F918F917F916F915F914F9124
:100C10003F912F910F900FBE0F901F90189584E277
:100C200094EF9093890080938800E1E8F0E0808160
:100C300088608083AFE6B0E08C9182608C93808185
:100C4000846080838CE98093B300E0EBF0E08081E6
:100C500082608083E0E7F0E0808182608083E1EB66
:100C6000F0E08081856080830895CF93DF930E94B8
:100C7000D4010E94CF0180E90E94D9010E94CF01D6
:100C800080E00E94D9010E94CF010E94D4010E94FD
:100C9000CF0181E90E94D9010E94CF0181E00E9429
:100CA000E0010E94CF010E94E901D82F0E94CF01EC
:100CB00080E00E94E0010E94CF010E94E901C82F5C
:100CC0000E94CF010E94CB011092BC008C2F90E0BB
:100CD0009D2B34E0959587953A95E1F797FD0F9612
:100CE00024E0959587952A95E1F7DF91CF910895B6
:100CF0005058BB27AA270E9490060C94DA070E943E
:100D0000CC0738F00E94D30720F039F49F3F19F444
:100D100026F40C94C9070EF4E095E7FB0C94C30786
:100D2000E92F0E94EB0758F3BA176207730784078D
:100D3000950720F079F4A6F50C940D080EF4E095D3
:100D40000B2EBA2FA02D0B01B90190010C01CA0185
:100D5000A0011124FF27591B99F0593F50F4503E30
:100D600068F11A16F040A22F232F342F4427585F22
:100D7000F3CF469537952795A795F0405395C9F73A
:100D80007EF41F16BA0B620B730B840BBAF09150F2
:100D9000A1F0FF0FBB1F661F771F881FC2F70EC091
:100DA000BA0F621F731F841F48F487957795679564
:100DB000B795F7959E3F08F0B0CF9395880F08F050
:100DC0009927EE0F9795879508950E94F9060C9440
:100DD000DA070E94D30758F00E94CC0740F029F4AC
:100DE0005F3F29F00C94C30751110C940E080C942A
:100DF000C9070E94EB0768F39923B1F3552391F3D8
:100E0000951B550BBB27AA2762177307840738F079
:100E10009F5F5F4F220F331F441FAA1FA9F335D0D6
:100E20000E2E3AF0E0E832D091505040E695001C8A
:100E3000CAF72BD0FE2F29D0660F771F881FBB1F44
:100E4000261737074807AB07B0E809F0BB0B802D22
:100E5000BF01FF2793585F4F3AF09E3F510578F04E
:100E60000C94C3070C940E085F3FE4F3983ED4F350
:100E7000869577956795B795F7959F5FC9F7880F22
:100E8000911D9695879597F90895E1E0660F771F74
:100E9000881FBB1F621773078407BA0720F0621B05
:100EA000730B840BBA0BEE1F88F7E09508950E9430
:100EB000F30788F09F5798F0B92F9927B751B0F0F2
:100EC000E1F0660F771F881F991F1AF0BA95C9F7CE
:100ED00014C0B13091F00E940D08B1E008950C9457
:100EE0000D08672F782F8827B85F39F0B93FCCF30A
:100EF000869577956795B395D9F73EF4909580954B
:100F0000709561957F4F8F4F9F4F0895E89409C06A
:100F100097FB3EF490958095709561957F4F8F4F2C
:100F20009F4F9923A9F0F92F96E9BB279395F69542
:100F3000879577956795B795F111F8CFFAF4BB0FC0
:100F400011F460FF1BC06F5F7F4F8F4F9F4F16C024
:100F5000882311F096E911C0772321F09EE8872FAE
:100F6000762F05C0662371F096E8862F70E060E06A
:100F70002AF09A95660F771F881FDAF7880F9695E3
:100F8000879597F9089597F99F6780E870E060E08A
:100F900008959FEF80EC089500240A941616170612
:100FA00018060906089500240A941216130614065A
:100FB00005060895092E0394000C11F4882352F0BD
:100FC000BB0F40F4BF2B11F460FF04C06F5F7F4F75
:100FD0008F4F9F4F089557FD9058440F551F59F05C
:100FE0005F3F71F04795880F97FB991F61F09F3F16
:100FF00079F087950895121613061406551FF2CF3F
:101000004695F1DF08C0161617061806991FF1CF8E
:1010100086957105610508940895E894BB276627B5
:101020007727CB0197F9089516F00C94D1080C940A
:10103000C90768940C94C3070E94F307A8F3992387
:10104000C1F3AEF3DF93CF931F930F93FF92C92F9A
:10105000DD2788232AF02197660F771F881FDAF78C
:1010600020E030E040E85FEB9FE3883920F0803EED
:1010700038F021968F770E947906E8EAF0E004C004
:101080000E947906E5EDF0E00E94DF088B01BE01C9
:10109000EC01FB2E6F5771097595771F880B990B23
:1010A0000E94880728E132E741E35FE30E94770866
:1010B000AF2D9801AE01FF900F911F91CF91DF915D
:1010C0000E9490060C94DA070E9477080C94DA07C5
:1010D0000E94CC0738F00E94D30720F0952311F02E
:1010E0000C94C3070C94C90711240C940E080E9499
:1010F000EB0770F3959FC1F3950F50E0551F629F6A
:10110000F001729FBB27F00DB11D639FAA27F00D60
:10111000B11DAA1F649F6627B00DA11D661F829F87
:101120002227B00DA11D621F739FB00DA11D621F6C
:10113000839FA00D611D221F749F3327A00D611D89
:10114000231F849F600D211D822F762F6A2F11246B
:101150009F5750409AF0F1F088234AF0EE0FFF1F9E
:10116000BB1F661F771F881F91505040A9F79E3FF5
:10117000510580F00C94C3070C940E085F3FE4F314
:10118000983ED4F3869577956795B795F795E7954B
:101190009F5FC1F7FE2B880F911D9695879597F954
:1011A00008959F3F31F0915020F48795779567958A
:1011B000B795880F911D9695879597F90895DF93B8
:1011C000CF931F930F93FF92EF92DF927B018C01DD
:1011D000689406C0DA2EEF010E947708FE01E894B9
:1011E000A5912591359145915591A6F3EF010E9466
:1011F0009006FE019701A801DA9469F7DF90EF905D
:10120000FF900F911F91CF91DF910895991B79E085
:1012100004C0991F961708F0961B881F7A95C9F786
:101220008095089597FB072E16F4009407D077FD5C
:1012300009D00E942C0907FC05D03EF490958195B9
:101240009F4F0895709561957F4F0895EE0FFF1F92
:101250000590F491E02D0994AA1BBB1B51E107C036
:10126000AA1FBB1FA617B70710F0A61BB70B881F36
:10127000991F5A95A9F780959095BC01CD010895C5
:10128000BB274A3031F4992322F4BDE29095819531
:101290009F4F0C944C09BB27FB015527AA27880FA9
:1012A000991FAA1FA41710F0A41B83955051B9F7DA
:1012B000A05DAA3308F0A95DA193009779F7B11159
:1012C000B1931192CB010C946509DC01FC01672FED
:1012D00071917723E1F7329704C07C916D9370830D
:0E12E0006291AE17BF07C8F30895F894FFCFD0
:1012EE005420696E746572696F723A20004300541F
:1012FE00206578746572696F723A20002E00487509
:10130E006D656461643A2000250050746F2E205282
:10131E006F63696F3A200054206D61782F6D696E8E
:06132E003A2000432F00ED
:040000030000043ABB
:00000001FF
