:100000000C9454000C9471000C9471000C948402B4
:100010000C949F020C9471000C9471000C94BA0221
:100020000C9471000C9471000C9471000C94EA0211
:100030000C9471000C9471000C94E0020C9471000B
:100040000C9471000C9471000C9471000C9471006C
:100050000C9471000C9471000C9471000C9471005C
:100060000C9471000C9471002C012E0130013201AE
:100070003401360138013A013C013E0140014201A0
:100080004401460148014A015401560158015A01F0
:100090005C015E01600162016401660168016A0140
:1000A0006C016E017001720111241FBECFEFD8E008
:1000B000DEBFCDBF11E0A0E0B1E0EEECF6E002C0A3
:1000C00005900D92AE34B107D9F721E0AEE4B1E06E
:1000D00001C01D92A836B207E1F70E943A020C94C3
:1000E00065030C9400008CE08093B800E9EBF0E02D
:1000F00080818C7F80838FEF8093BB0084E080932E
:10010000BC0008959BB19F709BB99BB1282F207FA5
:10011000922B9BB95898599AEFE3FCE93197F1F784
:1001200000C000005998EFE3FCE93197F1F700C0F7
:1001300000009BB19F709BB92BB1F0E18F9FC00174
:100140001124822B8BB95898599A8FE39CE9019717
:10015000F1F700C000005998EFE3FCE93197F1F79F
:1001600000C0000008958FEF8AB988E20E948200E3
:100170008CE00E94820086E00E94820081E00E9462
:10018000820080E80C9482009BB19F709BB99BB168
:10019000282F207F922B9BB9589A599AEFE3FCE9BC
:1001A0003197F1F700C000005998EFE3F6E031977E
:1001B000F1F700C000009BB19F709BB92BB1F0E13B
:1001C0008F9FC0011124822B8BB9589A599A8FE3C3
:1001D0009CE90197F1F700C000005998EFE3F6E0C1
:1001E0003197F1F700C000000895CF93DF93EC0141
:1001F0008991882319F00E94C400FACFDF91CF9132
:100200000895CF93DF93CDB7DEB728970FB6F89454
:10021000DEBF0FBECDBF4AE0BE016F5F7F4F0E94C1
:100220003003CE0101960E94F50028960FB6F8948F
:10023000DEBF0FBECDBFDF91CF910895009719F0BB
:10024000019751F108956031710508F04EC0FB012E
:10025000EC5CFF4F0C942A0380E845C081E843C062
:1002600082E841C083E83FC084E83DC085E83BC0E8
:1002700086E839C087E837C088E835C089E833C0E8
:100280008AE831C08BE82FC08CE82DC08DE82BC0E8
:100290008EE829C08FE827C06031710530F5FB0179
:1002A000EC5BFF4F0C942A0380EC1DC081EC1BC05B
:1002B00082EC19C083EC17C084EC15C085EC13C028
:1002C00086EC11C087EC0FC088EC0DC089EC0BC028
:1002D0008AEC09C08BEC07C08CEC05C08DEC03C028
:1002E0008EEC01C08FEC0C948200089581E00C9498
:1002F000820080915A0190915B018230910509F44E
:1003000045C024F5009799F1019709F08AC00E9431
:10031000760160E070E080E090E00E941E0189E1DB
:1003200091E00E94F500809155014AE06CE571E092
:1003300090E00E9430038CE591E00E94F50080E39C
:1003400091E00E94F500809154015DC083309105D9
:10035000E1F1049709F065C00E94760160E070E069
:1003600080E090E00E941E0182E391E058C00E946C
:10037000760160E070E080E090E00E941E0180E085
:1003800091E00E94F500809156013DC00E947601E7
:1003900060E070E080E090E00E941E0189E191E061
:1003A0000E94F500809153014AE06CE571E090E015
:1003B0000E9430038CE591E00E94F50080E391E01B
:1003C0000E94F500809152011EC00E94760160E0FB
:1003D00070E080E090E00E941E0189E191E00E94BF
:1003E000F500809151014AE06CE571E090E00E94D7
:1003F00030038CE591E00E94F50080E391E00E94DB
:10040000F500809150014AE06CE571E090E00E94B7
:1004100030038CE591E00E94F50087E191E00E94B5
:10042000F50060E070E081E090E00E941E018091A4
:10043000590190E00C940101359B0AC080914F0155
:100440008F5F80934F01843028F081E080936601B4
:1004500010924F010895199B0AC080914E018F5F41
:1004600080934E01843028F081E0809367011092E0
:100470004E01089521983D98459A299A80916B00E4
:10048000826080936B0080916C00806280936C002E
:10049000809168008160809368008091680082602C
:1004A000809368000E9473000E94B300789480914A
:1004B0005A0190915B01892B81F080915A019091B2
:1004C0005B01019751F080915A0190915B01029775
:1004D00021F080915A0190915B01F89460E070E006
:1004E00081E090E00E941E018091590190E00E94FD
:1004F000010178942FEF81EE94E0215080409040EC
:10050000E1F700C00000D3CF1F920F920FB60F92F9
:1005100011248F939F9380916701882349F08091E4
:100520005A0190915B01019690935B0180935A016F
:100530009F918F910F900FBE0F901F9018951F9253
:100540000F920FB60F9211248F939F9380916601A3
:10055000882349F080915A0190915B010197909313
:100560005B0180935A019F918F910F900FBE0F9066
:100570001F9018951F920F920FB60F9211242F9370
:100580003F934F935F936F937F938F939F93AF931B
:10059000BF93EF93FF930E941C020E942B02FF91D6
:1005A000EF91BF91AF919F918F917F916F915F91EB
:1005B0004F913F912F910F900FBE0F901F90189564
:1005C0001F920F920FB60F9211240F900FBE0F9033
:1005D0001F9018951F920F920FB60F9211242F9310
:1005E0003F934F935F936F937F938F939F93AF93BB
:1005F000BF93EF93FF93809159018F5F80935901CF
:100600008C33B8F00E947901809158018F5F8093FC
:1006100058018C3360F0809157018F5F883118F456
:100620008093570102C01092570110925801109206
:100630005901FF91EF91BF91AF919F918F917F9160
:100640006F915F914F913F912F910F900FBE0F903F
:100650001F901895EE0FFF1F0590F491E02D09945F
:10066000BB274A3031F4992322F4BDE2909581955D
:100670009F4F0C943C03BB27FB015527AA27880FEB
:10068000991FAA1FA41710F0A41B83955051B9F706
:10069000A05DAA3308F0A95DA193009779F7B11185
:1006A000B1931192CB010C945503DC01FC01672F2F
:1006B00071917723E1F7329704C07C916D93708339
:0E06C0006291AE17BF07C8F30895F894FFCFFC
:1006CE0054656D706572617475726120696E7465C2
:1006DE0072696F723A2000430054656D70657261E5
:1006EE0074757261206578746572696F723A200054
:1006FE002E0054656D7065726174757261206D6146
:0E070E0078696D612F6D696E696D613A20002A
:040000030000016692
:00000001FF
