:100000000C9454000C9471000C9471000C948801B1
:100010000C9414020C9471000C9471000C94210344
:100020000C9471000C9471000C9471000C945103A9
:100030000C9471000C9471000C9447030C947100A3
:100040000C9471000C9471000C9471000C9471006C
:100050000C9471000C9471000C9471000C9471005C
:100060000C9471000C9471001D011F0121012301EA
:100070002501270129012B012D012F013101330118
:100080003501370139013B014501470149014B0168
:100090004D014F01510153015501570159015B01B8
:1000A0005D015F016101630111241FBECFEFD8E044
:1000B000DEBFCDBF11E0A0E0B1E0ECE6F7E002C0AA
:1000C00005900D92AC33B107D9F721E0ACE3B1E074
:1000D00001C01D92A534B207E1F70E9492020C9470
:1000E000B4030C9400009BB19F709BB99BB1282F67
:1000F000207F922B9BB95898599AEFE3FCE93197EE
:10010000F1F700C000005998EFE3FCE93197F1F7EF
:1001100000C000009BB19F709BB92BB1F0E18F9F95
:10012000C0011124822B8BB95898599A8FE39CE90E
:100130000197F1F700C000005998EFE3FCE931970F
:10014000F1F700C0000008958FEF8AB988E20E949D
:1001500073008CE00E94730086E00E94730081E0CF
:100160000E94730080E80C9473009BB19F709BB950
:100170009BB1282F207F922B9BB9589A599AEFE375
:10018000FCE93197F1F700C000005998EFE3F6E081
:100190003197F1F700C000009BB19F709BB92BB164
:1001A000F0E18F9FC0011124822B8BB9589A599A84
:1001B0008FE39CE90197F1F700C000005998EFE345
:1001C000F6E03197F1F700C000000895CF93DF9378
:1001D000EC018991882319F00E94B500FACFDF91D4
:1001E000CF910895CF93DF93CDB7DEB728970FB6A1
:1001F000F894DEBF0FBECDBF4AE0BE016F5F7F4FF8
:100200000E947F03CE0101960E94E60028960FB659
:10021000F894DEBF0FBECDBFDF91CF910895009758
:1002200019F0019751F108956031710508F04EC041
:10023000FB01EC5CFF4F0C94790380E845C081E83A
:1002400043C082E841C083E83FC084E83DC085E800
:100250003BC086E839C087E837C088E835C089E800
:1002600033C08AE831C08BE82FC08CE82DC08DE800
:100270002BC08EE829C08FE827C06031710530F5AA
:10028000FB01EC5BFF4F0C94790380EC1DC081EC0B
:100290001BC082EC19C083EC17C084EC15C085EC40
:1002A00013C086EC11C087EC0FC088EC0DC089EC40
:1002B0000BC08AEC09C08BEC07C08CEC05C08DEC40
:1002C00003C08EEC01C08FEC0C947300089581E0A4
:1002D0000C947300359B0AC080913D018F5F809321
:1002E0003D01843028F081E08093430110923D016C
:1002F0000895199B0AC080913C018F5F80933C0157
:10030000843028F081E08093440110923C010895EC
:100310001F920F920FB60F9211242F933F934F937A
:100320005F936F937F938F939F93AF93BF93EF935D
:10033000FF9380914401882309F45DC080914101BD
:1003400090914201019690934201809341018091E6
:10035000410190914201059729F4109242011092B7
:10036000410108C080914101909142019093420166
:10037000809341011092440180914101909142018A
:10038000892B59F40E94670160E070E080E090E002
:100390000E940F0180E091E02BC08091410190917B
:1003A0004201019759F40E94670160E070E080E02B
:1003B00090E00E940F018EE091E01AC0809141010F
:1003C00090914201029729F40E9467018CE191E02B
:1003D0000FC08091410190914201039729F40E943E
:1003E000670184E291E004C00E9467018FE291E01E
:1003F0000E94E60008C080914101909142019093D3
:10040000420180934101FF91EF91BF91AF919F9184
:100410008F917F916F915F914F913F912F910F90AD
:100420000FBE0F901F9018951F920F920FB60F924C
:1004300011242F933F934F935F936F937F938F93E9
:100440009F93AF93BF93EF93FF93809143018823D2
:1004500009F44FC08091410190914201019790931E
:1004600042018093410180914101909142010196A6
:1004700019F484E090E004C0809141019091420120
:100480009093420180934101109243018091410178
:1004900090914201892B29F40E94670180E091E04C
:1004A00025C08091410190914201019729F40E9459
:1004B00067018EE091E01AC0809141019091420164
:1004C000029729F40E9467018CE191E00FC08091AE
:1004D000410190914201039729F40E94670184E24F
:1004E00091E004C00E9467018FE291E00E94E60063
:1004F00008C0809141019091420190934201809304
:100500004101FF91EF91BF91AF919F918F917F91A9
:100510006F915F914F913F912F910F900FBE0F9070
:100520001F9018953B9A3A9A399A439A429A419A5F
:1005300021983D98459A299A80916B00826080931A
:100540006B0080916C00806280936C0080916800E9
:100550008160809368008091680082608093680069
:1005600084E294EF909389008093880080918100C9
:1005700088608093810080916F00826080936F001B
:10058000809181008460809381008CE98093B30026
:100590008091B00082608093B00080917000826092
:1005A000809370008091B10085608093B10084B524
:1005B000826084BD8EE387BD80916E0082608093EF
:1005C0006E0085B5846085BD0E94A40078948091FA
:1005D000410190914201892B19F44398429A16C027
:1005E0008091410190914201019731F08091410148
:1005F00090914201029711F4439A07C08091410102
:1006000090914201439A039719F44298419A02C08B
:10061000429A4198F89460E070E081E090E00E9496
:100620000F018091400190E00E94F20078942FEF3A
:1006300081EE94E0215080409040E1F700C000003E
:10064000C6CF1F920F920FB60F9211242F933F9394
:100650004F935F936F937F938F939F93AF93BF93CA
:10066000EF93FF930E946A010E947901FF91EF913D
:10067000BF91AF919F918F917F916F915F914F91BA
:100680003F912F910F900FBE0F901F9018951F92C2
:100690000F920FB60F9211240F900FBE0F901F9064
:1006A00018951F920F920FB60F9211248F9380917D
:1006B00040018F5F809340018C33A8F080913F010F
:1006C0008F5F80933F018C3360F080913E018F5F9C
:1006D000883118F480933E0102C010923E011092BE
:1006E0003F01109240018F910F900FBE0F901F900D
:1006F0001895EE0FFF1F0590F491E02D0994BB278C
:100700004A3031F4992322F4BDE2909581959F4FB0
:100710000C948B03BB27FB015527AA27880F991F31
:10072000AA1FA41710F0A41B83955051B9F7A05D20
:10073000AA3308F0A95DA193009779F7B111B1939D
:100740001192CB010C94A403DC01FC01672F719181
:100750007723E1F7329704C07C916D9370836291A7
:0C076000AE17BF07C8F30895F894FFCF50
:10076C0054656D702E2045787465726E6100546509
:10077C006D702E20496E7465726E610048756D65E2
:10078C006461640050746F2E20526F63696F004D6A
:0C079C0061782E2079204D696E2E00003F
:0400000300000148B0
:00000001FF
